:020000040000FA
:1000000044EF1DF0C96E12008DEF15F0CDEC0BF032
:1000100036EC17F0FDD712000BEF18F0D9CFE5FF43
:10002000E1CFD9FF00C0E5FF01C0E5FF02C0E5FF59
:1000300003C0E5FF04C0E5FF05C0E5FF06C0E5FF1E
:1000400007C0E5FF08C0E5FF09C0E5FF0AC0E5FFFE
:100050000BC0E5FF0CC0E5FF0DC0E5FF0EC0E5FFDE
:100060000FC0E5FF10C0E5FF11C0E5FF12C0E5FFBE
:1000700013C0E5FF14C0E5FF15C0E5FF16C0E5FF9E
:1000800017C0E5FF18C0E5FF19C0E5FF1AC0E5FF7E
:100090001BC0E5FF1CC0E5FF1DC0E5FF1EC0E5FF5E
:1000A000020EDBCF00F0030EDBCF01F0040EDBCF3E
:1000B00002F0050EDBCF03F0060EDBCF04F0070ED7
:1000C000DBCF05F0080EDBCF06F0090EDBCF07F023
:1000D0000A0EDBCF08F0096A0A6A02C00DF00D5063
:1000E000800A0DE102500A01466F0150456F005031
:1000F000446F0A0E016E440E006E800E026E03C045
:10010000E9FF04C0F3FF05507DEC1DF00B6E0B50B2
:10011000D8B4C4EF03F00B50250A02E0ABEF03F0B4
:100120000C6A0D6A0E6A0F6A106A0A0E116E126A64
:10013000136A146A200E156E1668176A2B0E186E55
:10014000032A02E3044A052A03C0E9FF04C0F3FFBF
:1001500005507DEC1DF0196E250A13E11950E56E6E
:100160000250E56E0150E56E0050E56E64EC0FF054
:10017000040EE126094A0A2A032A02E3044A052A50
:10018000BED71950300A06E1300E156E032A02E37D
:10019000044A052A03C0E9FF04C0F3FF05507DECC3
:1001A0001DF02D0A06E1010E146E032A02E3044A33
:1001B000052A03C0E9FF04C0F3FF05507DEC1DF0E4
:1001C000200A08E1010E176E200E186E032A02E3C2
:1001D000044A052A03C0E9FF04C0F3FF05507DEC83
:1001E0001DF02B0A06E1010E176E032A02E3044AF2
:1001F000052A03C0E9FF04C0F3FF05507DEC1DF0A4
:10020000196E310E195C2BE33A0E195C28E203C01B
:1002100019F004C01AF005C01BF019C0E9FF1AC09C
:10022000F3FF1B507DEC1DF01C6E300E1C5C11E3C7
:100230003A0E1C5C0EE213500A0DF3CF1DF01C5059
:100240001D26D00E1D24136E192A02E31A4A1B2AFA
:10025000E4D719C003F01AC004F01BC005F003C0B6
:10026000E9FF04C0F3FF05507DEC1DF02E0A2DE1DF
:10027000032A02E3044A052A166A03C019F004C0DF
:100280001AF005C01BF019C0E9FF1AC0F3FF1B509C
:100290007DEC1DF01C6E300E1C5C11E33A0E1C5CF4
:1002A0000EE216500A0DF3CF1DF01C501D26D00E85
:1002B0001D24166E192A02E31A4A1B2AE4D719C014
:1002C00003F01AC004F01BC005F003C0E9FF04C02E
:1002D000F3FF05507DEC1DF0196E6C0A07E1010E6D
:1002E0000C6E032A02E3044A052A09D01950680A51
:1002F00006E1010E0E6E032A02E3044A052A03C03A
:10030000E9FF04C0F3FF05507DEC1DF0750A06E11E
:10031000010E106E032A02E3044A052A03C0E9FF16
:1003200004C0F3FF05507DEC1DF0196E730A05E162
:10033000010E0D6E200E156E3FD01950780A03E1A4
:10034000100E116E39D01950580A05E1100E116EB9
:10035000010E126E31D01950630A02E1116A2CD0DD
:1003600019506F0A03E1080E116E26D01950660A63
:1003700003E1010E0F6E20D01950640A1DE01950E0
:10038000690A1AE0105005E0FF0E03260422052238
:1003900013D01950E56E0250E56E0150E56E005025
:1003A000E56E64EC0FF0040EE126094A0A2A032ADE
:1003B00002E3044A052AA3D60D5021E00650030F9C
:1003C0000D6E000E0720196E000E08201A6E0DC06B
:1003D00006F019C007F01AC008F0FD0E0D26FF0E3A
:1003E00019221A220DC0E9FF19C0F3FF1A5059EC67
:1003F0001CF00D6EF3CF19F0F4CF1AF0FDD00F50B2
:100400000DE0000E1A6E080E196E100E0D6E040E21
:100410000626000E072208221668EED016680C5039
:1004200023E00650040F0C6E000E07200F6E000E26
:1004300008201B6E0CC006F00FC007F01BC008F0B0
:10044000FC0E0C26FF0E0F221B220CC0E9FF0FC072
:10045000F3FF1B50DFEC1BF00C6EF3CF0FF0F4CF6B
:100460001BF0E9CF1CF067D00E502FE00650020FB2
:100470000E6E000E07201D6E000E08201E6E0EC0B0
:1004800006F01DC007F01EC008F0FE0E0E26FF0E7F
:100490001D221E220EC0E9FF1DC0F3FF1E5018ECE6
:1004A0001DF00E6E0EC00CF00F6A1B6A1C6A115014
:1004B0000A0A03E11050D8B43ED00C500E6E0EC0A4
:1004C0000CF00F6A1B6A1C6A36D00650020F0E6EC3
:1004D000000E07201D6E000E08201E6E0EC006F0D6
:1004E0001DC007F01EC008F0FE0E0E26FF0E1D22D6
:1004F0001E220EC0E9FF1DC0F3FF1E5018EC1DF0B8
:100500000E6EF3CF1DF00EC00CF01DC00FF0E86AA8
:100510001DBEFF0E1B6E1C6E11500A0A02E1105028
:100520000AE00C500E6E0F501D6E0EC00CF01DC078
:100530000FF01B6A1C6A040E196EF40E0D6E800E0D
:100540001A6E1150D8B440D0105013E01150E56E1F
:10055000040EE56EF40EE56E1C50E56E1B50E56E64
:100560000F50E56E0C50E56ECEEC0CF0070EE12658
:1005700012D01150E56E040EE56EF40EE56E1C50BF
:10058000E56E1B50E56E0F50E56E0C50E56E2AECE3
:1005900015F0070EE12617502FE00DC0E9FF19C036
:1005A000F3FF1A507DEC1DF02D0A26E0FF0E0D26FC
:1005B00019221A2218C0E5FF0DC0E9FF19C0F3FF88
:1005C0001A5015EC1EF018D00CC0E5FF0DC0E9FF65
:1005D00019C0F3FF1A5015EC1EF00D50010F0C6EF0
:1005E000000E19200E6E000E1A20E56A0CC0E9FFFD
:1005F0000EC0F3FF15EC1EF00DC00CF019C00EF08C
:100600001AC00FF013C010F0105010E00CC0E9FF3A
:100610000EC0F3FF0F507DEC1DF0176E175006E073
:100620000C2A02E30E4A0F2A1006EED710C013F070
:1006300014501EE109C00CF00AC00EF010C00FF0FB
:100640000F5010E01550E56E0250E56E0150E56E5A
:100650000050E56E64EC0FF0040EE1260C4A0E2A01
:100660000F06EED70CC009F00EC00AF00FC013F051
:1006700016C00CF00DC00DF019C00EF01AC00FF02E
:1006800009C010F00AC015F00DC0E9FF0EC0F3FF5D
:100690000F507DEC1DF0166E1650D8B43ED00CC035
:1006A00016F0176A161E171E1650171005E00CC01C
:1006B00016F00C06165031E00DC0E9FF0EC0F3FF36
:1006C0000F507DEC1DF0116E125010E01150E56ED0
:1006D000D5EC1CF0166EE652165004E0DF0E111435
:1006E000166E02D011C016F016C011F01150E56E52
:1006F0000250E56E0150E56E0050E56E64EC0FF0BF
:10070000040EE1260D2A02E30E4A0F2A104A152A8A
:100710001350D8B4B9D71306B7D710C009F015C015
:100720000AF014502BE010C00CF015C00DF013C0EF
:100730000EF00E501FE0200EE56E0250E56E0150E7
:10074000E56E0050E56E64EC0FF0040EE1260C4AF5
:100750000D2A0E06EED70B50E56E0250E56E0150E5
:10076000E56E0050E56E64EC0FF0040EE126094AD8
:100770000A2A04D00CC009F00DC00AF0032A02E3D3
:10078000044A052A7FEF00F00AC0F3FF0950E4CFC6
:100790001EF0E4CF1DF0E4CF1CF0E4CF1BF0E4CF5B
:1007A0001AF0E4CF19F0E4CF18F0E4CF17F0E4CF5B
:1007B00016F0E4CF15F0E4CF14F0E4CF13F0E4CF5B
:1007C00012F0E4CF11F0E4CF10F0E4CF0FF0E4CF5B
:1007D0000EF0E4CF0DF0E4CF0CF0E4CF0BF0E4CF5B
:1007E0000AF0E4CF09F0E4CF08F0E4CF07F0E4CF5B
:1007F00006F0E4CF05F0E4CF04F0E4CF03F0E4CF5B
:1008000002F0E4CF01F0E4CF00F0E4CFD9FF120012
:100810003C4E4F20464C4F41543E000000C0E5FF87
:1008200001C0E5FF02C0E5FF03C0E5FF04C0E5FF2E
:1008300005C0E5FF06C0E5FF07C0E5FF08C0E5FF0E
:1008400009C0E5FF0AC0E5FF0BC0E5FF0CC0E5FFEE
:10085000006A016A026A040E025CD8B0E8D101C0E5
:1008600003F0012A100E035CD8B0E1D10A012E2B4F
:10087000100E2E5D01E32E6B0A012E39E8441F0B8A
:10088000036E046A490E03260A0E042203C0E9FF20
:1008900004C0EAFFEFCF03F0070E2E15046E010E21
:1008A000056E000E066E045006E0E86CD890053622
:1008B0000636010FFCE3076A0350051607500616BB
:1008C00005500610D880E866D890056A05360550B0
:1008D000D8A4C1D70A012E51020DF450046EF3CFF3
:1008E00003F0E00E0324056E000E0420066E05C022
:1008F000E9FF06C0EAFFEECF05F0EFCF06F00A01F0
:100900002BA19DD0930E0324076E040E0420086EC5
:1009100007C0E9FF08C0EAFFEECF07F0EFCF08F00D
:100920000650800FF36E0850800FF35C02E1075011
:10093000055C03E2056A066A60D0B30E0326040E66
:10094000042203C0E9FF04C0EAFFEECF03F0EFCFBB
:1009500004F00450800FF36E0650800FF35C02E148
:100960000550035C04E205683F0E066E46D0075052
:10097000055C096E085006580A6EE86A0ABEFF0E4A
:100980000B6EE56E0B50E56E0A50E56E0950E56E94
:10099000E56AE56A400EE56E000EE56ABFEC09F017
:1009A000096EF3CF0AF0F4CF0BF0E9CF0CF0080E8C
:1009B000E1260750035C076E08500458086EE86A89
:1009C00008BEFF0E036EE56E0350E56E0850E56E3F
:1009D0000750E56E0C50E56E0B50E56E0A50E56E63
:1009E0000950E56E47EC0EF0036EF3CF04F0080EED
:1009F000E1260350056E0450066E0A012A51800F4D
:100A0000F36E0650800FF35C02E10550295D03E3AD
:100A1000056A066A14D00A012951FF08036E3F0EC9
:100A20002A55046E0650800FF36E0450800FF35C5D
:100A300002E10350055C03E305683F0E066E0A0100
:100A40002E51020DF450046EF3CF03F0590E03261D
:100A5000040E042203C0E9FF04C0EAFFEECF03F056
:100A6000EFCF04F00350055C036E04500658046E8B
:100A7000D88004AED89004E3041E036CD8B4042AD2
:100A8000022A0A012A51800FF36E0450800FF35C92
:100A900002E10350295DD8B0DED60A012E51020DC5
:100AA000F450086EF3CF07F0590E0726040E082203
:100AB00007C0E9FF08C0EAFF05C0EEFF06C0EFFF70
:100AC0000A012BA55AD00A012E51020DF450086ECE
:100AD000F3CF07F0D30E0724096E040E08200A6E28
:100AE00009C0E9FF0AC0EAFFEECF0BF0EFCF0CF030
:100AF0000B500C10D8B441D0390E0726040E082232
:100B000007C0E9FF08C0EAFFEECF07F0EFCF08F01B
:100B10000750055C036E08500658046E03101CE075
:100B20000450800F800F02E1010E035C076A073654
:100B30000C50800F800F02E1010E0B5C0B6A0B362C
:100B400007500B1809E109C0E9FF0AC0EAFF03C01A
:100B5000EEFF04C0EFFF7FD60A012E51020DF450C4
:100B6000046EF3CF03F0D30E0326040E042203C059
:100B7000E9FF04C0EAFFEE6AEF6A0A012BA343D043
:100B800000500EE100C003F0002A046A2F0E032675
:100B90000A0E042203C0E9FF04C0EAFF420EEF6E12
:100BA00000C003F0002A046A2F0E03260A0E042256
:100BB000640E0A012E25076E03C0E9FF04C0EAFF98
:100BC00007C0EFFF00C003F0002A046A2F0E0326BF
:100BD0000A0E04220650076E03C0E9FF04C0EAFFB4
:100BE00007C0EFFF00C003F0002A046A2F0E03269F
:100BF0000A0E04220550076E03C0E9FF04C0EAFF95
:100C000007C0EFFF28D62ECA03F00650E56E055048
:100C1000E56EE56A0350E56E000EE56E250EE56EA5
:100C20001C0EE56E8CEC18F0070EE12614D602C0FF
:100C300001F000501DE00A012BA31AD000C002F001
:100C4000002A036A2F0E02260A0E032202C0E9FFC1
:100C500003C0EAFF0A0EEF6E0050E56E800EE56EEF
:100C60000A0EE56E2F0EE56E94EC12F0040EE126EE
:100C70000150E4CF0CF0E4CF0BF0E4CF0AF0E4CF66
:100C800009F0E4CF08F0E4CF07F0E4CF06F0E4CFBA
:100C900005F0E4CF04F0E4CF03F0E4CF02F0E4CFBA
:100CA00001F0E4CF00F0120000C0E5FF01C0E5FF55
:100CB00002C0E5FF03C0E5FF04C0E5FF05C0E5FF96
:100CC00006C0E5FF07C0E5FF08C0E5FF09C0E5FF76
:100CD0000AC0E5FFC2A204D00A012C5167EF08F058
:100CE0000A012D51D8B41BD10A012C51020DF45028
:100CF000016EF3CF00F0E00E0026000E012200C0CE
:100D0000E9FF01C0EAFFEECF00F0EFCF01F0230EC4
:100D10002C25026E036A040E032202C0E9FF03C001
:100D2000EAFFEFCF02F00250FF0A01E152D0023891
:100D30000F0B036E920E0324046E056A0F0E05223C
:100D4000066A920E03260F0E062203C0E9FF06C0B4
:100D5000EAFFEFCF03F0070E0214066E010E076ED6
:100D6000065005E0E86CD8900736010FFDE3071C3C
:100D7000066E031604C0E9FF05C0EAFF03C0EFFFDB
:100D800002380F0B036E890E0324046E056A0F0EE2
:100D90000522066A890E03260F0E062203C0E9FF0C
:100DA00006C0EAFFEFCF03F0070E0214066E010E35
:100DB000076E065005E0E86CD8900736010FFDE39A
:100DC000071C066E031604C0E9FF05C0EAFF03C056
:100DD000EFFF0A012C51020DF450046EF3CF03F023
:100DE000E00E0326000E042201340130066E0030AE
:100DF000056E0634063205320634063205320550D9
:100E0000005C056E06500158066EC3CF07F0086AF5
:100E10000750052608500622C4CF07F0086A07507D
:100E20000A6E096A095005260A50062203C0E9FF26
:100E300004C0EAFF05C0EEFF06C0EFFF0A0128511B
:100E4000010A01E06AD00A012C51020DF450046E2F
:100E5000F3CF03F0E00E0324056E000E0420066EAF
:100E600005C0E9FF06C0EAFFEECF00F0EFCF01F0CA
:100E7000930E0326040E042203C0E9FF04C0EAFF18
:100E8000EECF05F0EFCF06F09C0E0526D8A00606A3
:100E90000150800FF36E0650800FF35C02E10550A5
:100EA000005C0EE20050640F056E000E0120066E1D
:100EB00003C0E9FF04C0EAFF05C0EEFF06C0EFFF74
:100EC0000A012C51020DF450046EF3CF03F0B30E5F
:100ED0000326040E042203C0E9FF04C0EAFFEECF9C
:100EE00005F0EFCF06F0640E0526D8B0062A0650AE
:100EF000800FF36E0150800FF35C02E10050055C3F
:100F00000CE29C0E0026D8A0010603C0E9FF04C035
:100F1000EAFF00C0EEFF01C0EFFF0A012D6B0A01DE
:100F20002C2B100E2C5D01E32C6B0A012C39E844AC
:100F30001F0B006E016A490E00260A0E012200C036
:100F4000E9FF01C0EAFFEFCF00F0070E2C15016E9C
:100F5000010E036E000E046E015006E0E86CD8909E
:100F600003360436010FFCE3056A005003160550F2
:100F7000041603500410D880E866D890036A03363C
:100F80000350D8A4A2D0230E0A012C25006E016ABA
:100F90000F0E012200C0E9FF01C0EAFFEFCF00F011
:100FA0000044E844FC0B016E0128C26E230E2C2580
:100FB000006E016A040E012200C0E9FF01C0EAFFD1
:100FC000EFCF02F00250FF0A01E17BD002380F0B95
:100FD000006E920E0024016E036A0F0E0322046A53
:100FE000920E00260F0E042200C0E9FF04C0EAFFA3
:100FF000EFCF00F0070E0214046E010E056E0450D0
:1010000005E0E86CD8900536010FFDE305500012AD
:1010100001C0E9FF03C0EAFF00C0EFFF380E006E19
:101020000F0E016E02380F0B036E046A0350002688
:1010300004500122380E056E0F0E066E0550032671
:101040000650042203C0E9FF04C0EAFFEFCF03F01B
:10105000070E0216010E046E025005E0E86CD890EF
:101060000436010FFDE30450031200C0E9FF01C084
:10107000EAFF03C0EFFF0F01458300000000459326
:101080000F0144930BC0E5FFF2CF0BF0F29E4481B9
:101090000000000000000000000000000000000050
:1010A0000000000000000000000000000000000040
:1010B000000000000000000044910BBEF28EE4CF5F
:1010C0000BF0C282010E0A012D6F0A012C51E4CFF0
:1010D0000AF0E4CF09F0E4CF08F0E4CF07F0E4CF62
:1010E00006F0E4CF05F0E4CF04F0E4CF03F0E4CF62
:1010F00002F0E4CF01F0E4CF00F01200800EE56EC4
:10110000040EE56EB30EE56E9AEC16F0030EE126C2
:10111000800EE56E040EE56E930EE56E9AEC16F009
:10112000030EE126800EE56E040EE56EB50EE56E4B
:101130009AEC16F0030EE126800EE56E040EE56EC5
:10114000950EE56E9AEC16F0030EE126800EE56E24
:10115000040EE56EB70EE56E9AEC16F0030EE1266E
:10116000800EE56E040EE56E970EE56E9AEC16F0B5
:10117000030EE126800EE56E040EE56EB90EE56EF7
:101180009AEC16F0030EE126800EE56E040EE56E75
:10119000990EE56E9AEC16F0030EE126800EE56ED0
:1011A000040EE56EBB0EE56E9AEC16F0030EE1261A
:1011B000800EE56E040EE56E9B0EE56E9AEC16F061
:1011C000030EE126800EE56E040EE56EBD0EE56EA3
:1011D0009AEC16F0030EE126800EE56E040EE56E25
:1011E0009D0EE56E9AEC16F0030EE126800EE56E7C
:1011F000040EE56EBF0EE56E9AEC16F0030EE126C6
:10120000800EE56E040EE56E9F0EE56E9AEC16F00C
:10121000030EE126800EE56E040EE56EC10EE56E4E
:101220009AEC16F0030EE126800EE56E040EE56ED4
:10123000A10EE56E9AEC16F0030EE126800EE56E27
:10124000040EE56EC30EE56E9AEC16F0030EE12671
:10125000800EE56E040EE56EA30EE56E9AEC16F0B8
:10126000030EE126800EE56E040EE56EC50EE56EFA
:101270009AEC16F0030EE126800EE56E040EE56E84
:10128000A50EE56E9AEC16F0030EE126800EE56ED3
:10129000040EE56EC70EE56E9AEC16F0030EE1261D
:1012A000800EE56E040EE56EA70EE56E9AEC16F064
:1012B000030EE126800EE56E040EE56EC90EE56EA6
:1012C0009AEC16F0030EE126800EE56E040EE56E34
:1012D000A90EE56E9AEC16F0030EE126800EE56E7F
:1012E000040EE56ECB0EE56E9AEC16F0030EE126C9
:1012F000800EE56E040EE56EAB0EE56E9AEC16F010
:10130000030EE126800EE56E040EE56ECD0EE56E51
:101310009AEC16F0030EE126800EE56E040EE56EE3
:10132000AD0EE56E9AEC16F0030EE126800EE56E2A
:10133000040EE56ECF0EE56E9AEC16F0030EE12674
:10134000800EE56E040EE56EAF0EE56E9AEC16F0BB
:10135000030EE126800EE56E040EE56ED10EE56EFD
:101360009AEC16F0030EE126800EE56E040EE56E93
:10137000B10EE56E9AEC16F0030EE1261200D9CFFD
:10138000E5FFE1CFD9FF00C0E5FF01C0E5FF02C0E6
:10139000E5FF03C0E5FF04C0E5FF05C0E5FF06C0AB
:1013A000E5FF07C0E5FF020EDBCF00F0030EDBCF49
:1013B00001F0040EDBCF02F0050EDBCF03F0060ECA
:1013C000DBCF04F0070EDBCF05F0080EDBCF06F015
:1013D000090EDBCF07F000500401816F0150826FCE
:1013E0000250836F0350846F04500401856F0550D1
:1013F000866F0650876F0750886F04018151040182
:101400008703F4CF01F0F3CF00F0005004018C6F9C
:1014100001508D6F0401815104018503F4CF01F067
:10142000F3CF00F0005004018A6F01508B6F04016C
:10143000845104018503F3CF00F004018D5100268F
:1014400000508D6F0401835104018603F3CF01F036
:1014500001500026005004018D6F040183510401E6
:101460008503F4CF01F0F3CF00F004018C51002686
:101470008D51012200508C6F01508D6F04018251FB
:1014800004018603F4CF03F0F3CF02F002500026EC
:1014900003500122005004018C6F01508D6F040134
:1014A000825104018703F3CF00F000500401916FD3
:1014B0000401825104018503F4CF01F0F3CF00F061
:1014C000005004018F6F0150906F0401815104019D
:1014D0008803F3CF00F000500A01406F04018151EE
:1014E00004018603F4CF01F0F3CF00F000500A01AD
:1014F0003E6F01503F6F04018E6B0A013D6B04018A
:101500008E5104018A25006E04018F5104018B2144
:10151000016E0401905104018C21026E040191516D
:1015200004018D21036E00508A6F01508B6F0250B1
:101530008C6F03508D6F0A013D5104018A25006EA6
:101540000A013E5104018B21016E0A013F51040141
:101550008C21026E0A01405104018D21036E03C0EB
:10156000E9FF02C0F4FF01C0F3FF0050E4CF07F031
:10157000E4CF06F0E4CF05F0E4CF04F0E4CF03F0CD
:10158000E4CF02F0E4CF01F0E4CF00F0E4CFD9FFE4
:10159000120000C0E5FF01C0E5FF0A012551D8B4E3
:1015A000F7D09DA81DD09EA81BD00A0154510A0156
:1015B000511905E1CBEC1DF00A01516BE9D0000E89
:1015C0000A015425006E016A040E012200C0E9FFE1
:1015D00001C0EAFFEFCF4DFA542B4DCAADFFD8D072
:1015E0009DAAD6D09EAAD4D0ABA205D00A01528122
:1015F000CBEC1DF0CDD0ABA405D00A015283CBECCF
:101600001DF0C6D0ABA03ED0AECF4DFA800E0A0181
:1016100026110A014D1904E10A015289AB96B8D08E
:101620000A014D5104E04D510A01261927E10A0132
:101630005299AB960A014D5103E00A01529702D02C
:101640000A0152874DCA56FA4FCA57FA0A014F0586
:101650000A01586F600E0A015725006E016A000EDC
:10166000012200C0E9FF01C0EAFF4DCAEFFF572B7E
:101670005751800A02E10A01576B8AD00A01529938
:10168000AB8686D0AECF4DFA0A0152A919D0800E92
:101690000A0126110A014D1911E19D9AAB98949007
:1016A0000A01515104E1AD6ACBEC1DF007D000C432
:1016B000ADFF010E0A01546F9D886AD0AB8668D0D9
:1016C0000A014D510A0156270A0157510A015819BA
:1016D0001BE10A0156510CE157CA4FFA0A0152B7F1
:1016E00012D09D9AAB989490AD6ACBEC1DF00BD0C4
:1016F0000A01528552B707D09D9AAB989490010E7B
:10170000AD6ECBEC1DF044D00A0157510A015019BF
:1017100008E10A0150510A014F1903E0CBEC1DF01A
:1017200037D04FCA00F0016A004A012AE56A800EEC
:10173000E56E0150E56E0050E56E86EC13F0006E2C
:10174000040EE12600500A014E6F0A0157190CE100
:101750001F0E0A014D150A01586F582B582B0A010C
:101760004F510A015827589F57CA00F00A01572BBA
:10177000016A600E0026000E012200C0E9FF01C0D0
:10178000EAFF4DCAEFFF5751800A02E10A01576B89
:10179000E4CF01F0E4CF00F0120000C0E5FF01C08B
:1017A000E5FF02C0E5FF03C0E5FF04C0E5FF49EC2B
:1017B0001EF094928B92CCEC1AF0F3CF01F0F4CFA0
:1017C00002F0E9CF03F0880F0401336F130E0120FC
:1017D000346F000E0220356F000E0320366F11ECBF
:1017E00012F09280800E006E0F0E016E0F0E036ECF
:1017F000380E002603500122800E026E0F0E036E7B
:10180000800E005E0350015A0F0E046E380E022641
:10181000045003220F0E046E800E025E0450035A21
:1018200002C0E9FF03C0EAFFEFCF02F0028000C070
:10183000E9FF01C0EAFF02C0EFFF000EE56AE56ABA
:10184000C7EC14F0E652E6529282800E006E0F0E44
:10185000016E0F0E036E380E002603500122800E1B
:10186000026E0F0E036E800E005E0350015A0F0EC3
:10187000046E380E0226045003220F0E046E800EF2
:10188000025E0450035A02C0E9FF03C0EAFFEFCF33
:1018900002F0028200C0E9FF01C0EAFF02C0EFFFD0
:1018A000010EE56EE56EC7EC14F0E652E652928446
:1018B000800E006E0F0E016E0F0E036E380E0026A6
:1018C00003500122800E026E0F0E036E800E005E2A
:1018D0000350015A0F0E046E380E022604500322E4
:1018E0000F0E046E800E025E0450035A02C0E9FF20
:1018F00003C0EAFFEFCF02F0028400C0E9FF01C09D
:10190000EAFF02C0EFFF020EE56EE56EC7EC14F0D1
:10191000E652E652948A820E006E0F0E016E0F0E92
:10192000036E380E0026035001220F0E036E800E48
:10193000005E0350015A820E026E0F0E036E0F0EF0
:10194000046E380E0226045003220F0E046E800E21
:10195000025E0450035A02C0E9FF03C0EAFFEFCF62
:1019600002F0028A00C0E9FF01C0EAFF02C0EFFFF7
:10197000110EE56E080EE56EC7EC14F0E652E65265
:10198000E4CF04F0E4CF03F0E4CF02F0E4CF01F0C1
:10199000E4CF00F01200430025630000D9CFE5FF3B
:1019A000E1CFD9FF00C0E5FF01C0E5FF02C0E5FFC0
:1019B00003C0E5FF04C0E5FF05C0E5FF06C0E5FF85
:1019C00007C0E5FF08C0E5FF09C0E5FF0AC0E5FF65
:1019D0000BC0E5FF0CC0E5FF0DC0E5FF0EC0E5FF45
:1019E0000FC0E5FF020EDBCF00F0030EDBCF01F0EE
:1019F000040EDBCF02F0050EDBCF03F0060EDBCFCB
:101A000004F0070EDBCF05F0080EDBCF06F0200E4A
:101A1000076E086A06C009F00A6A0B6A0C6AE56A72
:101A2000E56AE56A0950E56E0350E56E0250E56E21
:101A30000150E56E0050E56EAAEC0DF00D6E080E3B
:101A4000E126300E0D263A0E0D5C05E30D500E6EAC
:101A5000270E0E240D6EFF0E07260822000E072407
:101A60000E6E0A0E08200F6E0EC0E9FF0FC0EAFFCF
:101A70000DC0EFFF0C50E56E0B50E56E0A50E56EA1
:101A80000950E56E0350E56E0250E56E0150E56EBB
:101A90000050E56E47EC0EF0006EF3CF01F0F4CF8E
:101AA00002F0E9CF03F0080EE12600500110021009
:101AB0000310D8A4AFD707C000F008C001F004C0DD
:101AC00002F005C003F000C004F001C005F0004AB8
:101AD000012A000E04260A0E052204C0E9FF05C0F3
:101AE000EAFFEFCF04F002C0E9FF03C0EAFF04C041
:101AF000EFFF024A032A000E015C02E1200E005CA7
:101B0000E2E302C0E9FF03C0EAFF000EEF6AE4CFA0
:101B10000FF0E4CF0EF0E4CF0DF0E4CF0CF0E4CF03
:101B20000BF0E4CF0AF0E4CF09F0E4CF08F0E4CF03
:101B300007F0E4CF06F0E4CF05F0E4CF04F0E4CF03
:101B400003F0E4CF02F0E4CF01F0E4CF00F0E4CF03
:101B5000D9FF1200D9CFE5FFE1CFD9FF00C0E5FFE3
:101B600001C0E5FF02C0E5FF03C0E5FF04C0E5FFDB
:101B700005C0E5FF06C0E5FF07C0E5FF08C0E5FFBB
:101B800009C0E5FF0AC0E5FF020EDBCF00F0030E3F
:101B9000DBCF01F0040EDBCF02F0050EDBCF03F04C
:101BA000060EDBCF04F0070EDBCF05F0080EDBCF0F
:101BB00006F0090EDBCF07F0086A04500510061086
:101BC000071005E1E968F468F368E86847D0096A36
:101BD0000750800BE8440A6E0A501BE104500426AB
:101BE0000536063607360750035C08E10650025CEE
:101BF00005E10550015C02E10450005C06E2D8906A
:101C0000073206320532043204D0092A09C008F02E
:101C1000DFD70750035C08E10650025C05E1055080
:101C2000015C02E10450005C08E30450005E0550D2
:101C3000015A0650025A0750035AD890073206320A
:101C40000532043208C009F008060950E2E103C079
:101C5000E9FF02C0F4FF01C0F3FF0050E4CF0AF037
:101C6000E4CF09F0E4CF08F0E4CF07F0E4CF06F0CA
:101C7000E4CF05F0E4CF04F0E4CF03F0E4CF02F0CA
:101C8000E4CF01F0E4CF00F0E4CFD9FF1200D9CFC8
:101C9000E5FFE1CFD9FF00C0E5FF01C0E5FF02C0CD
:101CA000E5FF03C0E5FF04C0E5FF05C0E5FF06C092
:101CB000E5FF07C0E5FF08C0E5FF09C0E5FF0AC072
:101CC000E5FF0BC0E5FF0CC0E5FF0DC0E5FF020E10
:101CD000DBCF00F0030EDBCF01F0040EDBCF02F010
:101CE000050EDBCF03F0060EDBCF04F0070EDBCFD3
:101CF00005F0080EDBCF06F0090EDBCF07F0086A0F
:101D0000096A0A6A0B6A200E0C6E0350800BE844C5
:101D10000D6E0050002601360236033608500826A4
:101D200009360A360B360D50D8A4088007500B5CD4
:101D300008E106500A5C05E10550095C02E1045027
:101D4000085C09E30450085E0550095A06500A5A17
:101D500007500B5A00800C040D6E0DC00CF00D5096
:101D6000D4E103C0E9FF02C0F4FF01C0F3FF00505B
:101D7000E4CF0DF0E4CF0CF0E4CF0BF0E4CF0AF0A9
:101D8000E4CF09F0E4CF08F0E4CF07F0E4CF06F0A9
:101D9000E4CF05F0E4CF04F0E4CF03F0E4CF02F0A9
:101DA000E4CF01F0E4CF00F0E4CFD9FF120000C08F
:101DB000E5FF01C0E5FF03C0E5FF04C0E5FF05C086
:101DC000E5FF06C0E5FF07C0E5FF08C0E5FF09C065
:101DD000E5FF0AC0E5FF0BC0E5FF47CA00F048CAAF
:101DE00001F00A01473F01D0482B0050E56EBDECE1
:101DF0001DF0E652076E046A056A066A47CA00F0DB
:101E000048CA01F00A01473F01D0482B0050E56E57
:101E1000BDEC1DF0E6520B6A0A6E086A0850041207
:101E200005120A5006120B50071247CA00F048CAA2
:101E300001F00A01473F01D0482B0050E56EBDEC90
:101E40001DF0E652036E006A03C001F0E86A03BEAB
:101E5000FF0E086E096E0050041201500512085062
:101E600006120950071247CA00F048CA01F00A01D9
:101E7000473F01D0482B0050E56EBDEC1DF0E65207
:101E8000016A0412015005120612071207C0E9FF89
:101E900006C0F4FF05C0F3FF0450E4CF0BF0E4CF1D
:101EA0000AF0E4CF09F0E4CF08F0E4CF07F0E4CF84
:101EB00006F0E4CF05F0E4CF04F0E4CF03F0E4CF84
:101EC00001F0E4CF00F01200D9CFE5FFE1CFD9FF58
:101ED00000C0E5FF01C0E5FF02C0E5FF03C0E5FF6C
:101EE00004C0E5FF05C0E5FF06C0E5FF07C0E5FF4C
:101EF000020EDBCF00F0030EDBCF01F0040EDBCFD0
:101F000002F0050EDBCF03F002C006F00650046EAF
:101F1000800A33E100C0E9FF01C0F3FF025059EC31
:101F20001CF0056EF3CF06F0F4CF07F003C0E5FF19
:101F300005C0E9FF06C0F3FF075015EC1EF000C016
:101F4000E9FF01C0F3FF025059EC1CF0056EF3CF1E
:101F500006F0F4CF07F0052A02E3064A072A05C077
:101F6000E5FF06C0F4FF07C0F6FF00C0E9FF01C0AF
:101F7000F3FF0250AEEC1DF020D004C000F000AA28
:101F80001CD0007A0050046E04E103504EEC1EF0A9
:101F900014D00450010A04E1035002EC00F00DD00B
:101FA00004500F0A04E103506AEC1AF006D0045002
:101FB0000E0A03E103505EEC1EF0E4CF07F0E4CF1D
:101FC00006F0E4CF05F0E4CF04F0E4CF03F0E4CF73
:101FD00002F0E4CF01F0E4CF00F0E4CFD9FF12002B
:101FE00000C0E5FF01C0E5FF02C0E5FF03C0E5FF5B
:101FF00004C0E5FF0A0150510A014F1901E15CD00C
:1020000050CA00F0002A009E600E0024016E026A91
:10201000000E022201C0E9FF02C0EAFFEFCF5AFA28
:102020001F0E0A015A1750CA59FA5A510A01592764
:10203000592B592B599FF6EC1AF0016E015003E110
:10204000016A012A01D0016AF6EC1AF00A015A6FFE
:10205000800E5A15026E1F0E5A15036E03C004F04F
:1020600003C05AFA045003E14FCA50FA38D0015065
:102070001BE002501FE0F6EC1AF0006E0A015A074E
:102080000050420A17E000504E0A03E1C9EC17F075
:1020900011D00050460A03E1FFEC1DF00BD00050B8
:1020A000490A08E1FF0006D050CA5BFA0250D8A4E2
:1020B0000BEC19F059CA50FA0A0122510A012319EE
:1020C00006E00A01515103E104EC11F008D094B08C
:1020D00006D00A01515103E1ACB2CBEC1DF0E4CFC4
:1020E00004F0E4CF03F0E4CF02F0E4CF01F0E4CF5A
:1020F00000F01200D9CFE5FFE1CFD9FF00C0E5FF26
:1021000001C0E5FF02C0E5FF03C0E5FF04C0E5FF35
:1021100005C0E5FF06C0E5FF07C0E5FF08C0E5FF15
:1021200009C0E5FF0AC0E5FF020EDBCF00F0030E99
:10213000DBCF01F0040EDBCF02F0050EDBCF03F0A6
:10214000060EDBCF04F0070EDBCF05F00038E844C5
:102150001F0B066E076A490E06260A0E072206C0E6
:10216000E9FF07C0EAFFEFCF08F0070E0014096E81
:10217000010E0A6E095005E0E86CD8900A36010F8E
:10218000FDE30A50081206C0E9FF07C0EAFF08C0D5
:10219000EFFF230E0024066E076A0F0E072206C00B
:1021A000E9FF07C0EAFF01C0EFFF016A230E002626
:1021B000040E0122800E025E070E02160238F00B9A
:1021C000036E070E05160550032600C0E9FF01C087
:1021D000EAFF03C0EFFFE4CF0AF0E4CF09F0E4CF59
:1021E00008F0E4CF07F0E4CF06F0E4CF05F0E4CF49
:1021F00004F0E4CF03F0E4CF02F0E4CF01F0E4CF49
:1022000000F0E4CFD9FF120000C0E5FF01C0E5FFF8
:1022100002C0E5FF03C0E5FFACA276D0FFEC1BF0E7
:10222000006E005005E10A01236B0A01226B6CD09D
:1022300023CA01F000500126FFEC1BF0026E0006DD
:102240000250230A1FE1010E005CD8A05BD0FFEC16
:102250001BF0026E690A03E19BEC1AF053D00250A6
:10226000720A03E1CBEC1DF04DD00250730A01E07D
:1022700049D09480AB869D8A9D98AE50AE50AB9865
:10228000AB8840D00250430A05E00250420A01E008
:1022900039D001D0008E00C053FA00500401006F05
:1022A000010E0A01546F0A012351011814E0FFECDA
:1022B0001BF0026E0A015327000E0A015425006E1E
:1022C000036A040E032200C0E9FF03C0EAFF02C054
:1022D000EFFF542BE8D7000E0A015425006E026A66
:1022E000040E02220A01531D036E032A00C0E9FFF7
:1022F00002C0EAFF03C0EFFF0A01542B54CA51FA8F
:102300000A014B6B01C023FAE4CF03F0E4CF02F0E3
:10231000E4CF01F0E4CF00F01200D9CFE5FFE1CF28
:10232000D9FF00C0E5FF01C0E5FF02C0E5FF03C023
:10233000E5FF04C0E5FF05C0E5FF06C0E5FF020EAE
:10234000DBCF00F0030EDBCF01F0040EDBCF02F099
:10235000050EDBCF03F003C004F0056A0350D8B4C8
:102360004FD000C0E9FF01C0F3FF02507DEC1DF02B
:10237000066E430A03E1010E056E038E0406002A71
:1023800002E3014A022A9D9AAB9894909D989EA8D8
:10239000FED7AC80AD6A00009EA8FED7AC9003C00B
:1023A000ADFF00009EA8FED7055004E0420EAD6EC2
:1023B000032604D0620EAD6E620E0326045015E0B3
:1023C00000009EA8FED700C0E9FF01C0F3FF025045
:1023D0007DEC1DF0056E05C0ADFF0550032604061B
:1023E000002A02E3014A022AE9D700009EA8FED78C
:1023F000031CAD6EAD2A00009EA8FED7CBEC1DF0ED
:10240000E4CF06F0E4CF05F0E4CF04F0E4CF03F02E
:10241000E4CF02F0E4CF01F0E4CF00F0E4CFD9FF45
:10242000120000C0E5FF01C0E5FF02C0E5FF03C0E8
:10243000E5FF04C0E5FF006A490E0024016E026A50
:102440000A0E022201C0E9FF02C0EAFFEF6A002A79
:10245000020E005CF1E3006A0050020DF450026EBF
:10246000F3CF01F0E00E0124036E000E0220046E93
:1024700003C0E9FF04C0EAFFEE6AEF6A390E0124E7
:10248000036E040E0220046E03C0E9FF04C0EAFFDD
:10249000EE6AEF6A590E0124036E040E0220046EE8
:1024A00003C0E9FF04C0EAFFEE6AEF6A930E01245D
:1024B000036E040E0220046E03C0E9FF04C0EAFFAD
:1024C000EE6AEF6AB30E0126040E022201C0E9FF94
:1024D00002C0EAFFEE687F0EEF6E230E0024016E4D
:1024E000026A040E022201C0E9FF02C0EAFFEF689F
:1024F000002A100E005CD8A0AFD7AF0EC06EC16A24
:10250000010EC26EC282E4CF04F0E4CF03F0E4CF48
:1025100002F0E4CF01F0E4CF00F0120043204120AC
:1025200025642025640A0000D9CFE5FFE1CFD9FF5B
:1025300000C0E5FF01C0E5FF02C0E5FF03C0E5FF05
:1025400004C0E5FF05C0E5FF06C0E5FF07C0E5FFE5
:10255000020EDBCF00F0030EDBCF01F0040EDBCF69
:1025600002F0050EDBCF03F023CA24FA0A01225140
:102570000A01245F240703C004F0056A030E042641
:10258000D8B0052A24CA06F0076A0750800FF36EF8
:102590000550800FF35C02E10450065C02E2E8683B
:1025A0002BD0020E035C02E2E86A26D00306035039
:1025B000E56E85EC19F0E652046A0350045C14E2FF
:1025C00004500024056EE86A0120066EE86A0220C5
:1025D00005C0E9FF06C0F3FF7DEC1DF0042AE56E9F
:1025E00085EC19F0E652E9D723CA24FA0A012251F0
:1025F0000A01245F2407E86AE4CF07F0E4CF06F07D
:10260000E4CF05F0E4CF04F0E4CF03F0E4CF02F030
:10261000E4CF01F0E4CF00F0E4CFD9FF1200D9CF2E
:10262000E5FFE1CFD9FF00C0E5FF01C0E5FF02C033
:10263000E5FF03C0E5FF04C0E5FF05C0E5FF020EAE
:10264000DBCF00F0030EDBCF01F0040EDBCF02F096
:102650000050020DF450036EF3CF00F0390E002449
:10266000046E040E0320056E04C0E9FF05C0EAFFF6
:1026700001C0EEFF02C0EFFF590E0024046E040EED
:102680000320056E04C0E9FF05C0EAFFEECF04F0A9
:10269000EFCF05F00150045C016E02500558026E48
:1026A000D30E0026040E032200C0E9FF03C0EAFF98
:1026B00001C0EEFF02C0EFFFD88002AED89004E365
:1026C000021E016CD8B4022A0250800F800F02E172
:1026D000030E015C02E2016A026A0150021007E186
:1026E00000C0E9FF03C0EAFF000EEE6AEF6AE4CF24
:1026F00005F0E4CF04F0E4CF03F0E4CF02F0E4CF40
:1027000001F0E4CF00F0E4CFD9FF1200D9CFE5FF0C
:10271000E1CFD9FF00C0E5FF01C0E5FF02C0E5FF42
:1027200003C0E5FF04C0E5FF05C0E5FF06C0E5FF07
:10273000020EDBCF00F0030EDBCF01F0040EDBCF87
:1027400002F0050EDBCF03F0D88001AED890046A0A
:102750000436045007E0011C066E001C056E054A95
:10276000062A04D000C005F001C006F0D88003AEF0
:10277000D89007E3031C016E021C006E004A012A78
:1027800004D002C000F003C001F00150E56E00501B
:10279000E56E0650E56E0550E56EEBEC15F0006E4B
:1027A000F3CF01F0040EE12604500AE0011C036E91
:1027B000001C026E024A032A03C0F3FF025003D03A
:1027C00001C0F3FF0050E4CF06F0E4CF05F0E4CF02
:1027D00004F0E4CF03F0E4CF02F0E4CF01F0E4CF63
:1027E00000F0E4CFD9FF1200D9CFE5FFE1CFD9FF48
:1027F00000C0E5FF01C0E5FF02C0E5FF03C0E5FF43
:1028000004C0E5FF05C0E5FF020EDBCF00F0030EBC
:10281000DBCF01F0040EDBCF02F0050EDBCF03F0BF
:1028200047CA04F048CA05F00A01473F01D0482BC7
:102830000350E56E0450E56EBBEC1BF0E652E65229
:1028400047CA04F048CA05F00A01473F01D0482BA7
:102850000250056EE56E0450E56EBBEC1BF0E652CF
:10286000E65247CA04F048CA05F00A01473F01D0C2
:10287000482B0150056EE56E0450E56EBBEC1BF075
:10288000E652E65247CA04F048CA05F00A01473F3B
:1028900001D0482B0050E56E0450E56EBBEC1BF0F8
:1028A000E652E652E4CF05F0E4CF04F0E4CF03F0C3
:1028B000E4CF02F0E4CF01F0E4CF00F0E4CFD9FFA1
:1028C0001200D9CFE5FFE1CFD9FF00C0E5FF01C07D
:1028D000E5FF02C0E5FF03C0E5FF04C0E5FF05C05A
:1028E000E5FF06C0E5FF020EDBCF00F0030EDBCFF5
:1028F00001F0040EDBCF02F00401375119E1D7ECEF
:102900000EF0036EF3CF04F0F4CF05F0E9CF06F03C
:1029100003C0E5FF04C0F4FF05C0F6FF06C0F7FFE3
:1029200000C0E9FF01C0F3FF02508EEC1DF01ED085
:1029300004013751010A1AE100C0E9FF01C0F3FFA9
:102940000250DFEC1BF0006EF3CF01F0F4CF02F089
:10295000E9CF03F00350E56E0250E56E0150E56EDD
:102960000050E56EF4EC13F0040EE126E4CF06F01F
:10297000E4CF05F0E4CF04F0E4CF03F0E4CF02F0BD
:10298000E4CF01F0E4CF00F0E4CFD9FF1200D9CFBB
:10299000E5FFE1CFD9FF00C0E5FF01C0E5FF02C0C0
:1029A000E5FF03C0E5FF04C0E5FF05C0E5FF06C085
:1029B000E5FF020EDBCF00F0030EDBCF01F00038A5
:1029C000E8441F0B026E036A490E02260A0E032218
:1029D00002C0E9FF03C0EAFFEFCF04F0070E0014C6
:1029E000056E010E066E055005E0E86CD8900636BF
:1029F000010FFDE30650041202C0E9FF03C0EAFF25
:102A000004C0EFFF230E0024026E036A0F0E0322A0
:102A100002C0E9FF03C0EAFF01C0EFFF016A230E15
:102A20000026040E012200C0E9FF01C0EAFFFF0EEC
:102A3000EF68E4CF06F0E4CF05F0E4CF04F0E4CF94
:102A400003F0E4CF02F0E4CF01F0E4CF00F0E4CFF4
:102A5000D9FF1200D9CFE5FFE1CFD9FF00C0E5FFD4
:102A600001C0E5FF02C0E5FF03C0E5FF04C0E5FFCC
:102A700005C0E5FF06C0E5FF020EDBCF00F0030E48
:102A8000DBCF01F0040EDBCF02F0050EDBCF03F04D
:102A9000060EDBCF04F0070EDBCF05F0080EDBCF10
:102AA00006F0D88003AED89015E306500A0A12E16A
:102AB00004C0E9FF05C0EAFF2D0EEF6E044A052AA7
:102AC000031E021E011E006C05E1012A03E1022A19
:102AD000D8B4032A0650E56E0550E56E0450E56E45
:102AE0000350E56E0250E56E0150E56E0050E56E54
:102AF000CEEC0CF0070EE126E4CF06F0E4CF05F0B3
:102B0000E4CF04F0E4CF03F0E4CF02F0E4CF01F02F
:102B1000E4CF00F0E4CFD9FF1200D8CFE5FFE0CF3B
:102B2000E5FFE56EF3CFE5FFF4CFE5FFE9CFE5FF85
:102B3000EACFE5FFFACFE5FFFBCFE5FFF6CFE5FFF4
:102B4000F6CFE5FFF7CFE5FFF8CFE5FFF5CFE5FFDF
:102B5000E1CFE5FFE2CFE5FF0A0120510F01356F1C
:102B60000A0121510F01366FD650336FD750346FA1
:102B7000F2A411D00A01203F01D0212BF2940A01C6
:102B800020510F01356F0A0121510F01366FD650C8
:102B9000336FD750346FE4CFE2FFE4CFE1FFE4CFEF
:102BA000F5FFE4CFF8FFE4CFF7FFE4CFF6FFE4CF83
:102BB000F6FFE4CFFBFFE4CFFAFFE4CFEAFFE4CF78
:102BC000E9FFE4CFF4FFE4CFF3FFE450E4CFE0FF0C
:102BD000E4CFD8FF1000D9CFE5FFE1CFD9FF00C087
:102BE000E5FF01C0E5FF02C0E5FF03C0E5FF04C04B
:102BF000E5FF05C0E5FF06C0E5FF020EDBCF00F0F4
:102C0000030EDBCF01F0040EDBCF02F0050EDBCFAD
:102C100003F0046A056A0350800BE844066E065010
:102C200011E10250022603360350015C02E102501A
:102C3000005C04E2D8900332023204D0052A05C0B9
:102C400004F0E9D70350015C02E10250005C04E3A8
:102C50000250005E0350015AD8900332023204C081
:102C600005F004060550EEE101C0F3FF0050E4CF8B
:102C700006F0E4CF05F0E4CF04F0E4CF03F0E4CFB6
:102C800002F0E4CF01F0E4CF00F0E4CFD9FF12006E
:102C900000C0E5FF01C0E5FF02C0E5FF03C0E5FF9E
:102CA00050CA00F0016A5BCA02F0036A0250005E7B
:102CB0000350015AE56A800EE56E0150E56E005042
:102CC000E56E86EC13F0006E040EE12600065BCA8A
:102CD00001F0430E6AEC1AF0200E6AEC1AF0005074
:102CE00020E0600E0124026E036A000E032202C07F
:102CF000E9FF03C0EAFFEFCF02F0E56A0250E56E9C
:102D0000000EE56E3B0EE56EAE0EE56E8CEC18F037
:102D1000050EE126012A0150800A01E1016A000640
:102D2000DED7E4CF03F0E4CF02F0E4CF01F0E4CF4C
:102D300000F01200D9CFE5FFE1CFD9FF00C0E5FFD9
:102D400001C0E5FF02C0E5FF03C0E5FF04C0E5FFE9
:102D5000020EDBCF00F0030EDBCF01F0040EDBCF61
:102D600002F00401375111E136EC1AF0036EF3CF93
:102D700004F003C0E5FF04C0F4FF00C0E9FF01C098
:102D8000F3FF0250E7EC1DF016D004013751010AA1
:102D900012E100C0E9FF01C0F3FF025018EC1DF082
:102DA000006EF3CF01F00150E56E0050E56E48EC87
:102DB00019F0E652E652E4CF04F0E4CF03F0E4CF9A
:102DC00002F0E4CF01F0E4CF00F0E4CFD9FF12002D
:102DD000840EF66E3C0EF76E000EF86E0900F5508C
:102DE000056E0900F550066E04E1056702D035EF67
:102DF00017F00900F550006E0900F550016E09004A
:102E0000F550026E09000900F550E96E0900F55011
:102E1000EA6E090009000900F550036E0900F5503B
:102E2000046E09000900F6CF07F0F7CF08F0F8CFDD
:102E300009F000C0F6FF01C0F7FF02C0F8FF035021
:102E400002E1045007E00900F550EE6E0306F8E2D7
:102E50000406F9D707C0F6FF08C0F7FF09C0F8FF5E
:102E6000050601E20606F4EF16F0120000C0E5FFC9
:102E700001C0E5FF02C0E5FF03C0E5FFF0EC0FF085
:102E800054EC06F0CCEC1AF0006EF3CF01F0F4CF66
:102E900002F0E9CF03F004013351005E3451015ACE
:102EA0003551025A3651035A039E3F0E035C08E126
:102EB000FF0E025C05E1FF0E015C02E1FF0E005C0B
:102EC00016E2CCEC1AF0F3CF01F0F4CF02F0E9CF28
:102ED00003F0880F0401336F130E0120346F000ECE
:102EE0000220356F000E0320366F0EEC04F0E4CFA5
:102EF00003F0E4CF02F0E4CF01F0E4CF00F01200E1
:102F0000D9CFE5FFE1CFD9FF00C0E5FF01C0E5FF64
:102F100002C0E5FF03C0E5FF04C0E5FF05C0E5FF13
:102F2000020EDBCF00F00050010A22E1016A0150DD
:102F3000020DF450036EF3CF02F0930E0224046EE0
:102F4000040E0320056E04C0E9FF05C0EAFFEE6829
:102F50007F0EEF6EB30E0226040E032202C0E9FFBD
:102F600003C0EAFFEE6AEF6A012A100E015CDFE39C
:102F700000C028FAE4CF05F0E4CF04F0E4CF03F07A
:102F8000E4CF02F0E4CF01F0E4CF00F0E4CFD9FFCA
:102F9000120000C0E5FF01C0E5FF02C0E5FFF6EC4E
:102FA0001AF0006EF6EC1AF0016E0050026ED00EB0
:102FB0000224006E0A0E005C05E30050026EF90E5A
:102FC0000224006E0150026ED00E0224016E0A0E21
:102FD000015C05E30150026EF90E0224016E080E39
:102FE000005C12E2100E015CD8B00ED00038F00B7D
:102FF0000124006EFCEC19F0016E015005E1005057
:10300000E56E8EEC1CF0E652E4CF02F0E4CF01F066
:10301000E4CF00F01200D8CFE5FFE0CFE5FFE56E8A
:10302000F3CFE5FFF4CFE5FFE9CFE5FFEACFE5FF1A
:10303000FACFE5FFFBCFE5FFF6CFE5FFF6CFE5FFE3
:10304000F7CFE5FFF8CFE5FFF5CFE5FFE1CFE5FFEF
:10305000E2CFE5FFC9EC0AF0E4CFE2FFE4CFE1FF05
:10306000E4CFF5FFE4CFF8FFE4CFF7FFE4CFF6FFBE
:10307000E4CFF6FFE4CFFBFFE4CFFAFFE4CFEAFFB3
:10308000E4CFE9FFE4CFF4FFE4CFF3FFE450E4CF73
:10309000E0FFE4CFD8FF1000D9CFE5FFE1CFD9FFA3
:1030A00000C0E5FF01C0E5FF02C0E5FF03C0E5FF8A
:1030B00004C0E5FF020EDBCF00F00038E8441F0B30
:1030C000016E026A490E01260A0E022201C0E9FFC2
:1030D00002C0EAFFEFCF03F0070E0016010E046EE8
:1030E000005005E0E86CD8900436010FFDE3041CA5
:1030F000031601C0E9FF02C0EAFF03C0EFFFE4CFFF
:1031000004F0E4CF03F0E4CF02F0E4CF01F0E4CF29
:1031100000F0E4CFD9FF1200D9CFE5FFE1CFD9FF0E
:1031200000C0E5FF01C0E5FF02C0E5FF020ED924A3
:10313000006E000EDA20016E800E026E030E002675
:10314000000E012202220250E56E0150E56E005091
:10315000E56E040EDBCFE5FF030EDBCFE5FF020ECD
:10316000DBCFE5FF04017F51E56E7E51E56E7D51B9
:10317000E56E0EEC00F0006EF3CF01F0090EE126D3
:1031800001C0F3FF0050E4CF02F0E4CF01F0E4CF40
:1031900000F0E4CFD9FF1200D9CFE5FFE1CFD9FF8E
:1031A00000C0E5FF01C0E5FF02C0E5FF03C0E5FF89
:1031B000020EDBCF00F0030EDBCF01F0040EDBCFFD
:1031C00002F0040137510DE1ECEC1CF0036E03C07A
:1031D000E5FF00C0E9FF01C0F3FF025015EC1EF04F
:1031E0000FD004013751010A0BE100C0E9FF01C013
:1031F000F3FF02507DEC1DF0E56E95EC1BF0E652FE
:10320000E4CF03F0E4CF02F0E4CF01F0E4CF00F02C
:10321000E4CFD9FF120000C0E5FF01C0E5FFF6ECE6
:103220001AF0006E4C0A08E1F6EC1AF0300A02E0DF
:103230008B8229D08B9227D00050450A24E1000EC2
:10324000E56E190EE56E960EE56E8CEC18F0030E29
:10325000E12658EC1EF0006E00C001F0000601509F
:103260000FE0F6EC1AF0E56AE56E000EE56E190E59
:10327000E56E980EE56E8CEC18F0050EE126ECD7A5
:103280000A0E6AEC1AF0E4CF01F0E4CF00F012006D
:10329000D9CFE5FFE1CFD9FF00C0E5FF01C0E5FFD1
:1032A00002C0E5FF03C0E5FF020EDBCF00F0030E16
:1032B000DBCF01F047CA02F048CA03F00A01473FDA
:1032C00001D0482B0150E56E0250E56EBBEC1BF0BF
:1032D000E652E65247CA02F048CA03F00A01473FE5
:1032E00001D0482B0050E56E0250E56EBBEC1BF0A0
:1032F000E652E652E4CF03F0E4CF02F0E4CF01F06F
:10330000E4CF00F0E4CFD9FF1200D9CFE5FFE1CF41
:10331000D9FF00C0E5FF01C0E5FF02C0E5FF03C023
:10332000E5FF04C0E5FF020EDBCF00F022CA01F08A
:10333000026A014A022A23CA03F0046A01500318F0
:1033400003E10250041801E001D00ED0000E0A0182
:103350002225016E026A070E022201C0E9FF02C0A7
:10336000EAFF00C0EFFF222BE4CF04F0E4CF03F02C
:10337000E4CF02F0E4CF01F0E4CF00F0E4CFD9FFD6
:103380001200D9CFE5FFE1CFD9FF00C0E5FF01C0B2
:10339000E5FF02C0E5FF03C0E5FF020EDBCF00F052
:1033A000016A5BCA02F0036A025000260350012240
:1033B000E56A800EE56E0150E56E0050E56E86EC24
:1033C00013F0006EF3CF01F0040EE126600E00262C
:1033D000000E012200C0E9FF01C0EAFFEFCF00F0BC
:1033E0000050E4CF03F0E4CF02F0E4CF01F0E4CFEB
:1033F00000F0E4CFD9FF120000C0E5FF01C0E5FFF7
:1034000002C0E5FF010E006EF6EC1AF0016E01C07D
:1034100002F0015023E00050E56EBDEC1DF0016E9E
:10342000E652015010E10A0E005C0BE20A0E006E3B
:10343000E56EBDEC1DF0016EE652015004E1E86856
:103440000ED0E8680CD00150021802E0E86807D0FE
:10345000002A1B0E005CD8E3E86801D0E86AE4CFDC
:1034600002F0E4CF01F0E4CF00F0120000C0E5FF6D
:1034700001C0E5FF02C0E5FF03C0E5FF47CA00F059
:1034800048CA01F00A01473F01D0482B0050E56EC1
:10349000BDEC1DF0E652036E026A47CA00F048CA4E
:1034A00001F00A01473F01D0482B0050E56EBDEC0A
:1034B0001DF0E652016A02120150031203C0F3FF2D
:1034C0000250E4CF03F0E4CF02F0E4CF01F0E4CF08
:1034D00000F0120000C0E5FF01C0E5FF02C0E5FFFB
:1034E000006E000E0A012725016E026A0F0E0222ED
:1034F00001C0E9FF02C0EAFF00C0EFFF220E275D16
:1035000001E2272B00500A0A0FE10A012751E56E5C
:10351000800EE56E0F0EE56E000EE56E94EC12F077
:10352000040EE1260A01276BE4CF02F0E4CF01F09C
:10353000E4CF00F012000A01226B0A01236B0A019A
:10354000246994808B909480B06A3F0EAF6EB886E9
:10355000AC8AAC84AC8CAC90AB8CAB8E0A01526B59
:103560000A014C6B0A014F6B0A01506B0A01516B47
:10357000000EE56ABDEC1DF00A01266FE6529F9829
:103580009F9A010E0A01256F04017D6B7E6B2F0E41
:103590007F6FCBEC1DF012000A01205104017B6FFC
:1035A0000A01215104017C6FD650796FD7507A6F90
:1035B0007B510A01201905E104017C510A012119FE
:1035C0000CE00A01205104017B6F0A012151040122
:1035D0007C6FD650796FD7507A6F7CC4E9FF7BC47B
:1035E000F4FF7AC4F3FF04017951120000C0E5FF33
:1035F00001C0E5FF0A0150510A01591905E00A010D
:1036000050510A014F1902E1E86A15D050CA00F082
:103610000A01502B016A600E0026000E012200C034
:10362000E9FF01C0EAFFEFCF00F05051800A02E14C
:103630000A01506B0050E4CF01F0E4CF00F012001B
:1036400000C0E5FF52EC1EF00401896B806B89839A
:10365000006A89B3002A0050010BE844F46E8051DF
:10366000FD0BF410806FD58ED59CD59AD588D59654
:10367000D594D582D580F28AF184D08EF28EF28CE8
:10368000BA80FF0EBB68BA84E4CF00F01200D9CF35
:10369000E5FFE1CFD9FF00C0E5FF01C0E5FF020E65
:1036A000DBCF00F00050020DF450016EF3CF00F0BC
:1036B000D30E0026040E012200C0E9FF01C0EAFF7C
:1036C000EECF00F0EFCF01F001C0F3FF0050E4CFE8
:1036D00001F0E4CF00F0E4CFD9FF1200D9CFE5FF2D
:1036E000E1CFD9FF00C0E5FF01C0E5FF020EDBCF4F
:1036F00000F00050020DF450016EF3CF00F0E00E28
:103700000026000E012200C0E9FF01C0EAFFEECF53
:1037100000F0EFCF01F001C0F3FF0050E4CF01F063
:10372000E4CF00F0E4CFD9FF1200D9CFE5FFE1CF1D
:10373000D9FF00C0E5FF01C0E5FF02C0E5FF020EB2
:10374000DBCF00F047CA01F048CA02F00A01473F48
:1037500001D0482B0050E56E0150E56EBBEC1BF02C
:10376000E652E652E4CF02F0E4CF01F0E4CF00F0FD
:10377000E4CFD9FF1200D9CFE5FFE1CFD9FF00C0D8
:10378000E5FF020EDBCF00F0030EDBCFA8FF00C089
:10379000A9FFA69EA69CA684F29EF29C550EA76E3B
:1037A000AA0EA76EA682A6A202D00000FCD7A694FD
:1037B000F28EF28CE4CF00F0E4CFD9FF1200E8AE35
:1037C0000AD0F3CFEAFFEE50EECFF3FFEECFF4FFD7
:1037D000EECFE9FF1200E8BC6BEF1EF0E9CFF6FF79
:1037E000F3CFF7FFF86E0900F5500900F5CFF3FFAE
:1037F0000900F5CFF4FF0900F5CFE9FF120000C082
:10380000E5FF01C0E5FF0A0122510A01231902E187
:10381000E86A0FD0000E0A012325006E016A070E28
:10382000012200C0E9FF01C0EAFFEFCF00F0232B27
:103830000050E4CF01F0E4CF00F01200F2CFEAFF35
:10384000F29EA69EA69CA684E9CFA9FFF3CFAAFF6D
:10385000E4CFA8FF2AEC1EF0F4CFA8FF2AEC1EF05C
:10386000F6CFA8FF2AEC1EF0F7CFA8FF2AEC1EF037
:10387000A694EABEF28E1200F2CFF6FFF29EA69E4A
:10388000A69CE9CFA9FFF3CFAAFFA680A850A94A1A
:10389000AA2AA680A8CFF3FFA94AAA2AA680A8CF61
:1038A000F4FFA94AAA2AA680A8CFEAFFF6BEF28EA4
:1038B0001200E8AE08D0F3CFEAFFEE50EECFF3FFF0
:1038C000EECFF4FF1200E8BC6DEF1EF0E9CFF6FF7B
:1038D000F3CFF7FFF86E0900F5500900F5CFF3FFBD
:1038E0000900F5CFF4FF1200F2CFEAFFF29EA69E88
:1038F000A69CA684E9CFA9FFF3CFAAFFE4CFA8FF37
:103900002AEC1EF0F4CFA8FF2AEC1EF0F6CFA8FF99
:103910002AEC1EF0A694EABEF28E1200D9CFE5FF83
:10392000E1CFD9FF00C0E5FF020EDBCF00F000C001
:1039300026FA0050E56E000EE56ABBEC1BF0E6527D
:10394000E652E4CF00F0E4CFD9FF1200F2CFF6FF49
:10395000F29EA69EA69CE9CFA9FFF3CFAAFFA68060
:10396000A850A94AAA2AA680A8CFF3FFA94AAA2A42
:10397000A680A8CFF4FFF6BEF28E120000C0E5FFCD
:1039800001C0E5FF600E0A015025006E016A000EBD
:10399000012200C0E9FF01C0EAFFEFCF00F00050B4
:1039A000E4CF01F0E4CF00F01200D9CFE5FFE1CF82
:1039B000D9FF00C0E5FF020EDBCF00F0610E005C16
:1039C00005E37B0E005C02E2010E01D0E86AE4CF61
:1039D00000F0E4CFD9FF120000C0E5FF01C0E5FF11
:1039E00047CA00F048CA01F00A01473F01D0482BFE
:1039F0000050E56EBDEC1DF0E652E4CF01F0E4CFDF
:103A000000F01200D9CFE5FFE1CFD9FF00C0E5FFFC
:103A1000020EDBCF00F000C025FA005004E1CBEC31
:103A20001DF09D9A9D98E4CF00F0E4CFD9FF1200DD
:103A3000E8AE06D0F3CFEAFFEE50EECFF3FF120070
:103A4000E8BC69EF1EF0E9CFF6FFF3CFF7FFF86EA1
:103A50000900F5500900F5CFF3FF1200F2CFEAFF9D
:103A6000F29EA69EA69CA684E9CFA9FFF3CFAAFF4B
:103A7000E4CFA8FF2AEC1EF0F4CFA8FF2AEC1EF03A
:103A8000A694EABEF28E120018EEFFF028EEFFF0C8
:103A9000F86AA68EA69CE9680E0EEA6E0068000E13
:103AA000ED6A0050FDE1E8EC16F006EC00F0FFD7FF
:103AB000F2CFF6FFF29EA69EA69CE9CFA9FFF3CF18
:103AC000AAFFA680A850A94AAA2AA680A8CFF3FFD9
:103AD000F6BEF28E1200F2CFEAFFF29EA69EA69CE0
:103AE000A684E9CFA9FFF3CFAAFFE4CFA8FF2AEC71
:103AF0001EF0A694EABEF28E1200E8AE04D0F3CF18
:103B0000EAFFEE501200E8BC67EF1EF0E9CFF6FFC7
:103B1000F3CFF7FFF86E0900F5501200E8AE0BD0B6
:103B2000F3CFEAFFE4CFEEFFF4CFEEFFF6CFEEFFE8
:103B3000F7CFEEFF1200E8BC65EF1EF012000000A8
:103B40000000FF0000000002000200000042000030
:103B5000000000000000000000000000E8AE09D0F6
:103B6000F3CFEAFFE4CFEEFFF4CFEEFFF6CFEEFFA8
:103B70001200E8BC6FEF1EF01200D9CFE5FFE1CFD5
:103B8000D9FF020EDBCFA9FFA69CA69EA680A85057
:103B9000E4CFD9FF1200ACA2FED79480AE50000053
:103BA000AE50AB98AB88AB869D8A9D981200256479
:103BB0002000F2CFF6FFF29EA69EA69CE9CFA9FFB9
:103BC000F3CFAAFFA680A850F6BEF28E1200E8AE90
:103BD00007D0F3CFEAFFE4CFEEFFF4CFEEFF120001
:103BE000E8BC63EF1EF01200700ED36E9B8CFF0ECC
:103BF0009268936894689668626AF19E120000C0A9
:103C0000E5FFFCEC19F0006E005001E1FF00E4CF8D
:103C100000F012000F01456B900E0F01446F030E70
:103C20000F01436F0F01458F1200E8AE05D0F3CFAF
:103C3000EAFFE4CFEEFF1200E8BC61EF1EF01200D5
:103C4000D9CFE5FFE1CFD9FF020EDBCF2BFAE4CFCE
:103C5000D9FF1200550EA76EAA0EA76EA682A6B2B5
:103C6000FED7A94AAA2A010E0401376F1C0E0A01C9
:103C7000476F486B12000401376B1C0E0A01476F37
:103C8000486B120001003E3B0000200A00001D00AE
:103C9000000020EC1BF09BEC1AF01200ACA2FED747
:103CA000AD6E1200F4EC1DF012000A01505112002A
:103CB0000A015A5112000A0125511200E8CF7FFF74
:103CC00012006BEF1DF02EEF1DF01EEF1CF0D9EF70
:103CD0001DF058EF1DF03CEF1CF0A6EF1CF074EF48
:023CE0001CF0D6
:020000040030CA
:0E000000FF251F3FFFBF85FF0FC00FE00F4021
:00000001FF
